:020000040800F2
:1000000000000220A93700083D3600083F360008EE
:10001000413600084336000845360008000000005D
:10002000000000000000000000000000473600084B
:1000300049360008000000004B3600084D36000825
:10004000F9370008F9370008F9370008F9370008D0
:10005000F9370008F9370008F9370008F9370008C0
:10006000F9370008F9370008F9370008F9370008B0
:1000700059360008F93700080D370008F93700082D
:100080002D370008F9370008F9370008F93700085C
:10009000F9370008F9370008F9370008F937000880
:1000A000F9370008F9370008F9370008F937000870
:1000B000F9370008F9370008F9370008F937000860
:1000C000F9370008F9370008F9370008F937000850
:1000D000F9370008F93700083D3700084D370008A8
:1000E000F9370008F9370008F9370008F937000830
:1000F000F9370008F9370008F9370008F937000820
:10010000F9370008F9370008F9370008F93700080F
:10011000F9370008F9370008F9370008F9370008FF
:10012000F9370008F9370008F9370008F9370008EF
:10013000F9370008F9370008F9370008F9370008DF
:10014000F9370008F9370008F9370008F9370008CF
:10015000F9370008F9370008F9370008F9370008BF
:10016000F9370008F9370008F9370008F9370008AF
:10017000F9370008F9370008F937000800000000D7
:08018000F9370008F937000807
:1001900010B5054C237833B9044B13B10448AFF3C1
:1001A00000800123237010BDB80000200000000073
:1001B0006840000808B5034B1BB103490348AFF37F
:1001C000008008BD00000000BC000020684000085E
:1001D00053B94AB9002908BF00281CBF4FF0FF31AE
:1001E0004FF0FF3000F072B9ADF1080C6DE904CEAC
:1001F00000F006F8DDF804E0DDE9022304B0704702
:100200002DE9F047089E04468846002B4BD18A42D0
:10021000154667D9B2FA82F24AB1C2F1200701FA53
:1002200002F320FA07F7954047EA030894404FEAA3
:10023000154E230CB8FBFEF71FFA85FC0EFB178842
:1002400043EA084307FB0CF1994209D9EB1807F17F
:10025000FF3080F01B81994240F21881023F2B440D
:100260005B1AA4B2B3FBFEF00EFB103344EA034466
:1002700000FB0CFCA44509D92C1900F1FF3380F0D8
:100280000781A44540F2048102382C4440EA07402B
:10029000A4EB0C0400271EB1D4400023C6E90043A0
:1002A0003946BDE8F0878B4209D9002E00F0EB807B
:1002B0000027C6E9000138463946BDE8F087B3FAA1
:1002C00083F7002F47D18B4202D3824200F2FA809B
:1002D000841A61EB030301209846002EE0D0C6E9A2
:1002E0000048DDE702B9FFDEB2FA82F2002A40F0F0
:1002F0008F80491B4FEA154E1FFA85F80127B1FB85
:10030000FEFC230C0EFB1C1143EA014308FB0CF11D
:10031000994207D9EB180CF1FF3002D2994200F252
:10032000CD808446591AA3B2B1FBFEF00EFB101427
:1003300043EA044408FB00F8A04507D92C1900F152
:10034000FF3302D2A04500F2B6801846A4EB0804A1
:1003500040EA0C409FE7C7F1200CBB4022FA0CFE9C
:100360004EEA030E01FA07F420FA0CF521FA0CF319
:100370004FEA1E482543B3FBF8F92C0C08FB193350
:100380001FFA8EFA44EA034309FB0AF49C4202FA7C
:1003900007F200FA07F10BD91EEB030309F1FF3056
:1003A00080F087809C4240F28480A9F10209734466
:1003B0001B1BADB2B3FBF8F008FB103345EA034456
:1003C00000FB0AFAA24508D91EEB040400F1FF3332
:1003D0006BD2A24569D90238744440EA0940A0FBB7
:1003E0000289A4EB0A044C45C2464B4654D351D073
:1003F000002E69D0B1EB0A0564EB030404FA0CFC8F
:10040000FD40FC404CEA0505C6E90054002747E7DB
:10041000C2F1200320FA03F7954001FA02F021FA15
:1004200003F34FEA154E3843010CB3FBFEF71FFAF6
:1004300085F80EFB173341EA034107FB08F38B42B3
:1004400004FA02F407D9691807F1FF3C2FD28B4256
:100450002DD9023F2944CB1A81B2B3FBFEF00EFB2B
:10046000103341EA034100FB08F38B4207D96918B6
:1004700000F1FF3C17D28B4215D902382944C91A22
:1004800040EA07473BE73746304609E70746E7E6D5
:100490001846FBE64145ABD2B8EB020A69EB0E0207
:1004A00001381346A4E76046E9E7184695E7674632
:1004B000D1E781467CE702382C4447E7ACF1020CD7
:1004C0002B442FE7384608E73746E9E6704700BF78
:1004D000034613F8012B002AFBD1181A0138704784
:1004E00001F0FF01102A2BDB10F0070F08D010F8E5
:1004F000013B013A8B422DD010F0070F42B3F6D1E9
:10050000F0B441EA012141EA014122F007047FF001
:1005100000070023F0E80256083C85EA010586EA58
:10052000010685FA47F5A3FA87F586FA47F6A5FA94
:1005300087F68EB9EED1F0BC01F0FF0102F00702A0
:1005400032B110F8013B013A83EA010313B1F8D14B
:100550000020704701387047002D06BF354603382C
:10056000073815F0010F07D1013015F4807F02BF65
:10057000013015F4C03F0130F0BC0138704700BFB6
:1005800010B504460E4B18784FF47A73B3FBF0F3B2
:100590000C4A1068B0FBF3F000F094F868B90F2C27
:1005A00001D901200AE0002221464FF0FF3000F07F
:1005B00049F8034B5C60002000E0012010BD00BF43
:1005C000000000205000002008B50B4B1A6842F4D0
:1005D00000721A601A6842F480621A601A6842F463
:1005E00080721A60032000F01BF80020FFF7C8FF9C
:1005F00002F07AFE002008BD003C0240034A116868
:10060000034B1B780B441360704700BFE4000020CD
:1006100000000020014B1868704700BFE400002074
:10062000074AD36823F4E0631B041B0C000200F4A8
:10063000E060184340F0BF6040F40030D060704785
:1006400000ED00E030B4174BDB68C3F30223C3F1C5
:100650000704042C28BF04241D1D062D18D9033BB4
:100660004FF0FF3505FA04F421EA0401994005FA38
:1006700003F322EA0303194300280BDB0901C9B283
:1006800000F1604000F5614080F8001330BC704715
:100690000023E5E700F00F000901C9B2024B19542D
:1006A000F4E700BF00ED00E014ED00E000F01F02F1
:1006B000400901239340024A42F82030704700BFAE
:1006C00000E100E00138B0F1807F0AD2064B5860AB
:1006D000064AF02182F823100020986007221A6051
:1006E00070470120704700BF10E000E000ED00E01F
:1006F000042805D0054A136823F0040313607047EB
:10070000024A136843F004031360704710E000E0EE
:10071000704708B5FFF7FCFF08BD30B405682C68CA
:1007200024F480242C60046863608368402B05D027
:10073000036899600368DA6030BC704703689A60A8
:100740000368D960F8E700000268D3B2103B0B4998
:10075000A1FB03131B090A49C95CC165032B06D819
:1007600022F47F7222F003028265806D704722F4CA
:100770007F7222F0030204328265F6E7ABAAAAAACE
:1007800080400008836A826992B9012B0AD01BB1AC
:10079000022B01D000207047C36A13F0807F2CD158
:1007A00000207047C36AB3F1C07F28D00020704793
:1007B000B2F5005F05D0022B29D9032B15D00020FC
:1007C0007047032B03D8DFE803F01C041C0A002049
:1007D0007047C36A13F0807F15D100207047C36A49
:1007E000B3F1C07F11D000207047C36A13F0807F3F
:1007F00001D0012070470020704701207047012080
:100800007047012070470120704701207047012088
:100810007047000070B50446FFF7FCFE002C5BD06B
:100820000546002384F83430022384F835302268EA
:10083000136823F00103136023681A6812F0010F94
:100840000AD0FFF7E7FE401B0528F5D92023636592
:10085000032084F8350070BD1A6820481040616894
:10086000A2680A43E1680A4321690A4361690A43AD
:10087000A1690A43E1690A43216A0A430243616AA2
:1008800004291ED01A602668756925F00705636A79
:100890001D43042B07D1A36A1D43E36A1BB1204605
:1008A000FFF770FF90B975612046FFF74DFFE26DCD
:1008B0003F239340836000206065012384F8353036
:1008C000C9E7E16A206B01430A43DBE74023636524
:1008D000012084F83500BEE70120BCE73F8010F01E
:1008E00038B5856D90F83440012C31D0012480F862
:1008F000344090F83540E4B2012C04D0002380F855
:100900003430022038BD0446022084F8350000202F
:1009100060652046FFF701FFE26D3F239340AB6027
:100920002268136843F0160313602268536943F08A
:1009300080035361236C23B12268136843F00803DA
:1009400013602268136843F0010313600020D9E7A5
:100950000220D7E790F83530DBB2022B03D080239A
:10096000436501207047052380F83530026813681D
:1009700023F001031360002070470000F0B583B03E
:10098000044600230193724B1D68724BA3FB05358F
:10099000AD0A876D3E68C26D08239340334210D084
:1009A00003681A6812F0040F0BD01A6822F00402D0
:1009B0001A60C26D08239340BB60436D43F001038E
:1009C0004365E26D01239340334209D022685269A6
:1009D00012F0800F04D0BB60636D43F002036365C7
:1009E000E26D04239340334209D02268126812F06A
:1009F000020F04D0BB60636D43F004036365E26DD6
:100A000010239340334224D02268126812F0080F5A
:100A10001FD0BB6023681A6812F4802F0DD01B68AA
:100A200013F4002F04D1236C9BB12046984710E0AB
:100A3000A36C73B1204698470BE01A6812F4807FCC
:100A400003D11A6822F008021A60236C0BB1204609
:100A50009847E26D20239340334255D022681268B4
:100A600012F0100F50D0BB6094F83530DBB2052B7C
:100A70000ED023681A6812F4802F33D01B6813F449
:100A8000002F2AD1636C002B3ED0204698473BE0D4
:100A90002268136823F0160313602268536923F059
:100AA00080035361236CA3B12268136823F0080309
:100AB0001360E26D3F239340BB60002384F8343021
:100AC000012384F83530236D002B3FD02046984712
:100AD0003CE0A36C002BE7D1EBE7E36BA3B120462E
:100AE000984711E01A6812F4807F09D11A6822F041
:100AF00010021A60002384F83430012384F8353062
:100B0000E36B0BB120469847636DFBB1636D13F047
:100B1000010F17D0052384F835302268136823F0BD
:100B200001031360019B01330193AB4204D8236896
:100B30001B6813F0010FF5D1002384F83430012332
:100B400084F83530E36C0BB12046984703B0F0BD14
:100B500050000020B5814E1B00230F2B00F2D780E0
:100B6000F0B482B039E0072200E00022B2403A43FC
:100B70000234674E46F82420664A1468EA4302EAC3
:100B800004064F6817F4803F01D045EA0406614C23
:100B90002660646802EA04064F6817F4003F01D03B
:100BA00045EA04065B4C6660A46802EA04064F68E6
:100BB00017F4801F01D045EA0406564CA660E4688D
:100BC00022404E6816F4001F01D045EA0402514C41
:100BD000E26001330F2B00F2978001229A400C68EB
:100BE00004EA0205AA42F4D14C68022C01D0122C6E
:100BF00010D1DE08083650F826C003F00704A7001D
:100C00000F24BC402CEA040C0C69BC4044EA0C04E0
:100C100040F8264004685F000326BE40F64306EA1B
:100C2000040C4C6804F00304BC4044EA0C04046067
:100C30004C6804F1FF3CBCF1010F03D9112C01D029
:100C4000122C10D1846806EA040CCC68BC4044EA3B
:100C50000C048460446824EA02024C68C4F3001463
:100C60009C4014434460C26816408A68BA403243CC
:100C7000C2604A6812F0805FABD000220192264A1F
:100C8000546C44F480445464526C02F480420192E7
:100C9000019A9C08A61C1E4A52F8267003F0030213
:100CA00096000F22B24027EA02071C4A90423FF406
:100CB0005CAF02F5806290421AD002F580629042E9
:100CC00018D002F58062904216D002F58062904200
:100CD00014D002F58062904212D002F580629042F8
:100CE00010D002F5806290423FF43DAF08223DE70C
:100CF00001223BE7022239E7032237E7042235E7E6
:100D0000052233E7062231E702B0F0BC7047704796
:100D100000380140003C0140003802400000024021
:100D200012B90904816170478161704703685A698B
:100D300012F4806F0DD06FF480625A610423036453
:100D400000230363202280F83D2080F83C300120FE
:100D5000704700207047F8B506460C4617461D46FA
:100D60001EE02DB1FFF756FC069BC01AA84217D90A
:100D700000233363202286F83D2086F83E3086F833
:100D80003C3003201AE033685B6924EA03039BB21A
:100D9000B3FA83F35B099F420FD1B5F1FF3FE0D176
:100DA000C4F30743012BEED033689B6924EA0303A5
:100DB0009BB2B3FA83F35B09EDE70020F8BDF8B509
:100DC00004460D4616461F4632E01A6842F4007289
:100DD0001A6023686FF480625A610423236400233D
:100DE0002363202284F83D2084F83C3001202DE04C
:100DF00026B1FFF70FFCC01BB04219D900232363B3
:100E0000202284F83D2084F83C3003201EE0236833
:100E10005B6925EA03039BB2003318BF0123A3B12A
:100E200023685A6912F4806FCFD1B6F1FF3FDFD14A
:100E3000C5F30743012BEAD023689B6925EA030326
:100E40009BB2003318BF0123E9E70020F8BD000082
:100E5000F0B583B004460D4616461F46C36A042B00
:100E60000DD0012B0BD013F5803F08D0036B122B54
:100E70000AD10268136843F48073136004E02268A7
:100E8000136843F4807313600097334600224FF0D9
:100E900001112046FFF75FFF58BB2369B3F5804F70
:100EA00010D1236805F0FE051D613B463246154909
:100EB0002046FFF784FF0346E0B1236C042B1ED1CC
:100EC000012317E0EB11226803F0060343F0F0035F
:100ED00013613B4632460C492046FFF770FF20B1B4
:100EE000236C042B09D1012304E02368EDB21D61BA
:100EF000DBE70323184603B0F0BD0323FAE703231F
:100F0000F8E700BF020001000800010070B50446C8
:100F10000D46164623685B6913F0800F19D12046F1
:100F2000FFF704FFB8B9B5F1FF3FF3D025B1FFF7E4
:100F300071FB801BA842EDD9236C43F0200323648E
:100F400000232363202284F83D2084F83C300320D2
:100F500000E0002070BD0120FCE770B504460D469E
:100F6000164623685B6913F0040F19D12046FFF77A
:100F7000DDFEB8B9B5F1FF3FF3D025B1FFF74AFB6D
:100F8000801BA842EDD9236C43F020032364002387
:100F90002363202284F83D2084F83C30032000E0C5
:100FA000002070BD0120FCE7002800F0828010B511
:100FB000044690F83D30002B41D0242384F83D3086
:100FC0002268136823F00103136000F0DFFF3A4B3F
:100FD000A3FB00239B0C226853606168374A91424F
:100FE00032D80133226813626368344A934235D899
:100FF0005B00B0FBF3F0C0F30B03032B00D804201D
:101000002368D861E369216A22680B43136023696E
:10101000E16822680B4393606369A16922680B430E
:10102000D3602268136843F001031360002020643A
:10103000202384F83D30206384F83E0010BD80F802
:101040003C3002F09BF9B8E74FF4967202FB03F3D1
:101050001B4AA2FB03239B090133C3E7A16889B99B
:1010600003EB4302B0FBF2F2C2F30B02B2FA82F2DC
:101070005209E2B991B903EB4303B0FBF3F040F43A
:101080000040BDE703EB830202EB8202B0FBF2F209
:10109000C2F30B02B2FA82F25209EAE703EB8303CE
:1010A00003EB8303B0FBF3F040F44040A8E70120DA
:1010B000A6E70120704700BF83DE1B43A086010026
:1010C000D34D62102DE9F04184B004460E4690469F
:1010D0001F46FFF79FFA94F83D30DBB2202B04D077
:1010E0000226304604B0BDE8F08105460090192381
:1010F000012254492046FFF72EFE002840F0998037
:1011000094F83C30012B00F09680012384F83C30A9
:1011100023681A6812F0010F03D11A6842F0010225
:101120001A602268136823F400631360212384F893
:101130003D30102384F83E3000232364C4F824801B
:101140006785A3F58033E362638D23852B460A9A76
:1011500031462046FFF77CFE064660B1236C042B27
:1011600004D1002384F83C300126BAE7002384F838
:101170003C300326B5E70023039323685A690392A2
:101180009B690393039B10E0236C042B55D12268C9
:10119000136843F4007313600126A2E72A460A99F4
:1011A0002046FFF7DAFE00282BD1238D002B32D00A
:1011B0002A460A992046FFF7A9FE0028E4D1636A6F
:1011C0005A1C626222681B781361638D013B9BB2DB
:1011D0006385238D013B9BB223852268516911F001
:1011E000040FDBD0002BD9D0636A591C61621B78D5
:1011F0001361638D013B9BB26385238D013B238586
:10120000CCE7236C042B1AD12268136843F40073D3
:101210001360012665E72268136843F400731360C6
:10122000202384F83D30002384F83E3084F83C309D
:1012300057E7022655E7022653E7032651E7032620
:101240004FE700BF020010002DE9F04105460F46B0
:1012500016461C46FFF7DEF9804614E02CB1FFF776
:10126000D9F9A0EB0800A0420DD9012385F841303F
:10127000002385F8403003200DE00123B34209D05C
:10128000B4F1FF3FEAD12B689B6837EA0303F4D03F
:101290000023F3E70020BDE8F081704708B5436AFA
:1012A0009A1C426202681B88D360438D013B9BB24B
:1012B0004385438D9BB203B108BD0268536823F098
:1012C000A0031B041B0C5360012380F84130FFF77F
:1012D000E4FFF1E7704708B50368DA68C36A991C50
:1012E000C1621A80438E013B9BB24386438E9BB200
:1012F00003B108BD0268536823F060031B041B0C94
:101300005360012380F84130FFF7E4FFF1E77047B5
:10131000002800F0BB8070B50446022580F84150DB
:101320005B4B436302F054F82268D36923F47B6378
:1013300023F00F03D36123681D622368DD696369AD
:10134000022B5BD0E368002B3ED02026A368202B25
:1013500000D87600012000F0E3FE2369B3F5007F9A
:1013600034D0B0FBF6F000EB800043006269B3FBC1
:10137000F2F30533474AA2FB0323DB0803F0010223
:101380009B1AC3F34F0311029A1EFD2A38D8226913
:101390000A43216813430B626268A168E068238BEB
:1013A00003439BB20B439BB213439BB243F40063D2
:1013B0001D432368DD61236A012B2AD0002060646D
:1013C000012384F8413070BD1026BFE7E36853B1B4
:1013D000B600B0FBF6F000EB800043006269B3FB9F
:1013E000F2F30533C6E7F600B0FBF6F000EB800041
:1013F00043006269B3FBF2F30533BBE70021C3E7A7
:10140000636C43F0100363642046FFF780FF012004
:10141000D9E7214B63632268204B9A421ED04FF0DC
:101420004022D36923F47B6323F00F03D361226846
:101430001A4B9A4214D04FF0402302221A622268BB
:10144000164B9A420FD04FF04022D0696168B1F537
:10145000007F0AD0C1B94FF4807608E0104AE0E777
:10146000A3F58063E9E70E4AEFE74FF48076A168C1
:10147000E568238B2B439BB20B439BB2334343F46E
:1014800000630343D36199E70026F0E7012070472A
:10149000A5140008CDCCCCCCB11700080038004012
:1014A0000034004010B584B004460268936803938A
:1014B00090F84130DBB2042B06D094F84130DBB217
:1014C000032B2ED004B010BD039B13F0010F03D0EB
:1014D000536813F0400F21D1039B13F0400FECD061
:1014E00023685A6812F0200FE7D05A6822F0600291
:1014F0001204120C5A60002301932368DA680192E7
:101500009B680193019B012384F84130636C43F095
:10151000020363642046FFF7FAFECEE7FFF7DBFE27
:10152000DAE7039B13F0020F04D023685B6813F023
:10153000800F1FD1039B13F0080FC3D023685A6894
:1015400012F0200FBED05A6822F0A0021204120C32
:101550005A600023029323689B680293029B012335
:1015600084F84130636C43F0040363642046FFF762
:10157000CEFEA7E72046FFF791FEDBE700296DD0FE
:1015800070B582B004461D460846002A68D094F81B
:101590004130DBB2012B66D12368DB6903F007031E
:1015A000032B04D0052B02D02285628503E0520074
:1015B00092B22285628594F84030DBB2012B54D080
:1015C000012384F8403000236364032384F841300E
:1015D0002368DA6912F4806F03D1DA6942F4806219
:1015E000DA61638D9BB2002B31D0861C23680288A0
:1015F000DA60638D013B9BB263852B460122022199
:101600002046FFF721FE30B923689A6812F0080FD0
:101610000AD13046E5E7636C43F00103636420467A
:10162000FFF775FE03201CE0002201929B680193E6
:10163000019B012584F8415084F84020636C43F0FD
:10164000040363642046FFF762FE284609E0012395
:1016500084F84130002084F8400002E00120704707
:10166000012002B070BD0220FBE70220F9E77047BD
:1016700008B5E9B9436A9A1C426202681B88D360C4
:10168000438D013B9BB24385438D9BB24BB90268AE
:10169000536823F0A0031B041B0C5360438E9BB2C2
:1016A00003B108BD012380F84130FFF7E0FFF8E700
:1016B000436A9A1C42621A880168134B99421ED0F1
:1016C0004FF04023DA60438D013B9BB24385438D4D
:1016D0009BB2002BE5D102680B4B9A4212D04FF01F
:1016E0004022536823F0A0035360438E9BB2002B2B
:1016F000D7D1012380F84130FFF7B9FFD1E7A3F537
:101700008063DFE7014AECE7003800400034004026
:1017100008B5E9B90368DA68C36A991CC1621A801E
:10172000438E013B9BB24386438E9BB24BB902680A
:10173000536823F060031B041B0C5360438D9BB262
:1017400003B108BD012380F84130FFF790FFF8E7AF
:101750000268154B9A4222D04FF04023DA68C36AE0
:10176000991CC1621A80438E013B9BB24386438E13
:101770009BB2002BE5D102680B4B9A4212D04FF07E
:101780004022536823F060035360438D9BB2002BCB
:10179000D7D1012380F84130FFF769FFD1E7A3F5E6
:1017A0008063DBE7014AECE700380040003400408A
:1017B00010B584B0044603689A6803927C4A934249
:1017C0005DD04FF040218A680292DA6902F44072DB
:1017D000B2F5007F04D0DA6912F4407F40F08180D6
:1017E000039A12F0020F03D05B6813F0800F48D108
:1017F000029B13F0010F09D022686D4B9A4245D02D
:101800004FF040235B6813F0400F42D1029B13F06E
:10181000400F09D02268664B9A423FD04FF04023D8
:101820005A6812F0200F3CD1039B13F0080F24D00C
:1018300023685A6812F0200F1FD05A6822F0A002C5
:101840001204120C5A602268594B9A4247D04FF04A
:101850004022536823F06003536000230193236800
:101860009B680193019B012384F84130636C43F032
:10187000040363642046FFF74AFD04B010BD4D49E0
:10188000A1E700212046FFF7F3FEB1E7A3F580634F
:10189000B8E701212046FFF73BFFB7E7A3F58063D8
:1018A000BEE75A6822F060025A602268536823F04B
:1018B000A0031B041B0C5360002300932368DA6809
:1018C00000929B680093009B012384F84130636C75
:1018D00043F0020363642046FFF719FDA4E7354A8D
:1018E000B7E7029B13F0020F03D04B6813F0800F91
:1018F0004FD1039B13F0010F04D023685B6813F0F2
:10190000400F4BD1039B13F0400F1ED023685A6841
:1019100012F0200F19D05A6822F060021204120C43
:101920005A602268224B9A423DD04FF040225368C1
:1019300023F0A0035360012384F84130636C43F02B
:10194000020363642046FFF7E2FC029B13F0080FDA
:1019500093D02268164B9A4227D04FF040235A6802
:1019600012F0200F89D05A6822F0A0025A60226833
:10197000536823F060031B041B0C5360012384F89D
:101980004130636C43F0040363642046FFF7BFFCFF
:1019900073E701212046FFF76BFEAAE700212046EE
:1019A000FFF7B6FEAEE7034AC1E7A3F58063D6E7CB
:1019B0000038004000340040002800F0BB8170B5C2
:1019C00082B00446036813F0010F3BD0A74B9B681D
:1019D00003F00C03042B2CD0A44B9B6803F00C03E6
:1019E000082B21D06368B3F5803F4FD0B3F5A02F0B
:1019F00052D09E4B1A6822F480321A601A6822F480
:101A000080221A606368002B50D0FEF703FE054663
:101A1000964B1B6813F4003F14D1FEF7FBFD401BEF
:101A20006428F5D903208AE1904B5B6813F4800F9A
:101A3000D8D08E4B1B6813F4003F03D06368002B93
:101A400000F07A81236813F0020F55D0874B9B6812
:101A500013F00C0F3ED0854B9B6803F00C03082B52
:101A600033D0E368002B68D0814B01221A60FEF767
:101A7000D1FD05467D4B1B6813F0020F54D1FEF7D4
:101A8000C9FD401B0228F5D9032058E1774A1368A5
:101A900043F480331360B5E7744B1A6842F4802234
:101AA0001A601A6842F480321A60ABE7FEF7B2FDA2
:101AB00005466E4B1B6813F4003FC3D0FEF7AAFD2A
:101AC000401B6428F5D9032039E1684B5B6813F4A7
:101AD000800FC6D1654B1B6813F0020F04D0E3687A
:101AE000012B01D001202AE1604A136823F0F8039A
:101AF000216943EAC1031360236813F0080F40D043
:101B0000636963B35B4B01221A60FEF783FD0546F0
:101B1000564B5B6F13F0020F33D1FEF77BFD401B7A
:101B20000228F5D903200AE1504A136823F0F8038C
:101B3000216943EAC1031360DEE74D4B00221A60BE
:101B4000FEF768FD0546494B1B6813F0020FD3D022
:101B5000FEF760FD401B0228F5D90320EFE0454B5E
:101B600000221A60FEF756FD0546404B5B6F13F0EE
:101B7000020F06D0FEF74EFD401B0228F5D90320C8
:101B8000DDE0236813F0040F79D0384B1B6C13F0A1
:101B9000805F33D100230193344B1A6C42F08052A2
:101BA0001A641B6C03F080530193019B0125324B97
:101BB0001B6813F4807F23D0A368012B34D0052B3E
:101BC00038D02A4B1A6F22F001021A671A6F22F0DE
:101BD00004021A67A368002B36D0FEF71BFD0646E9
:101BE000224B1B6F13F0020F48D1FEF713FD801B31
:101BF00041F288339842F3D90320A0E00025D6E7CC
:101C00001D4A136843F480731360FEF703FD064614
:101C1000194B1B6813F4807FCED1FEF7FBFC801BB1
:101C20000228F5D903208AE0104A136F43F001031C
:101C30001367CFE70D4B1A6F42F004021A671A6F51
:101C400042F001021A67C5E7FEF7E4FC0646074BBF
:101C50001B6F13F0020F11D0FEF7DCFC801B41F26A
:101C600088339842F3D9032069E000BF003802406E
:101C700000004742800E474200700040E5B9A3696A
:101C8000002B5BD0304A926802F00C02082A58D030
:101C9000022B17D02D4B00221A60FEF7BBFC044626
:101CA000294B1B6813F0007F42D0FEF7B3FC001BEA
:101CB0000228F5D9032042E0234A136C23F0805315
:101CC0001364DCE7214B00221A60FEF7A3FC0546F3
:101CD0001D4B1B6813F0007F06D0FEF79BFC401BDA
:101CE0000228F5D903202AE0E369226A1343626AD5
:101CF00043EA8213A26A5208013A43EA0243E26AC3
:101D000043EA0263104A5360104B01221A60FEF747
:101D100081FC04460C4B1B6813F0007F06D1FEF7D4
:101D200079FC001B0228F5D9032008E0002006E01A
:101D3000002004E001207047012000E0002002B0F4
:101D400070BD0120FBE700BF003802406000474241
:101D5000324B9B6803F00C03042B5CD0082B01D0A2
:101D60002F4870472DE9F04B2C4B5A6802F03F0288
:101D70005B6813F4800F2BD0284B5B68C3F3881388
:101D80001E4600275C010025E41A65EB0705A90142
:101D900041EA9461A001001B61EB0501CB0043EA1D
:101DA0005073C400A01943EB07014B0243EAD05320
:101DB0004402204619460023FEF70AFA174B5B68D7
:101DC000C3F3014301335B00B0FBF3F0BDE8F08BDC
:101DD000124B5B68C3F388131E4600275C01002585
:101DE000E41A65EB0705A90141EA9461A001001B13
:101DF00061EB0501CB0043EA5073C400A01943EB2B
:101E000007018B0243EA90538402204619460023BF
:101E1000FEF7DEF9D2E70348704700BF0038024002
:101E20000024F40000127A00002800F09D8070B5B4
:101E300004464F4B1B6803F00F038B4209D2CBB211
:101E40004B4A1370136803F00F038B4201D001203B
:101E500070BD236813F0020F17D013F0040F04D0E5
:101E6000444A936843F4E0539360236813F0080FE7
:101E700004D0404A936843F4604393603D4A9368BA
:101E800023F0F003A068034393600D46236813F02A
:101E9000010F32D06368012B21D09A1E012A25D967
:101EA000344A126812F0020F60D032498A6822F078
:101EB000030213438B60FEF7ADFB06462D4B9B6878
:101EC00003F00C036268B3EB820F16D0FEF7A2FB9F
:101ED000801B41F288339842F0D90320B8E7254AA5
:101EE000126812F4003FE0D10120B1E7214A1268E4
:101EF00012F0007FD9D10120AAE71D4B1B6803F027
:101F00000F03AB4209D9EAB2194B1A701B6803F0F0
:101F10000F03AB4201D001209AE7236813F0040FAE
:101F200006D0144A936823F4E053E1680B439360AE
:101F3000236813F0080F07D00E4A936823F4604318
:101F4000216943EAC1039360FFF702FF094B9B68D5
:101F5000C3F30313084AD35CD840084B1860002031
:101F6000FEF70EFB002073E70120704701206FE7AA
:101F7000003C024000380240884000085000002029
:101F8000014B1868704700BF5000002008B5FFF7EC
:101F9000F7FF044B9B68C3F38223034AD35CD8400A
:101FA00008BD00BF003802409840000808B5FFF7A0
:101FB000E7FF044B9B68C3F34233034AD35CD8402A
:101FC00008BD00BF003802409840000830B583B01B
:101FD0000446036813F0050F06D1236813F0020FBF
:101FE0002ED1002003B030BD494B00221A60FEF70D
:101FF00011FB0546474B1B6813F0006F06D0FEF738
:1020000009FB401B0228F5D90320EBE76268A368AF
:102010001B0743EA82133F4AC2F884303C4B01223B
:102020001A60FEF7F7FA05463A4B1B6813F0006F8B
:10203000D3D1FEF7EFFA401B0228F5D90320D1E7F0
:1020400000230193334B1A6C42F080521A641B6CCC
:1020500003F080530193019B2F4A136843F480736C
:102060001360FEF7D7FA05462B4B1B6813F4807FED
:1020700006D1FEF7CFFA401B0228F5D90320B1E7BD
:10208000244B1B6F13F4407312D0E26802F44072C9
:102090009A420DD01F4B1A6F22F440721F49012043
:1020A0000860002008601A671B6F13F0010F13D13E
:1020B000E36803F44072B2F5407F1ED0154A93687E
:1020C00023F4F813936013490B6FE268C2F30B0219
:1020D00013430B67002085E7FEF79CFA05460D4B7E
:1020E0001B6F13F0020FE3D1FEF794FA401B41F28D
:1020F00088339842F3D9032074E706498A6822F4AA
:10210000F81223F0704323F4407313438B60DAE733
:10211000680047420038024000700040400E4742CD
:1021200001282AD1174B9B6813F4000303D0012B1D
:1021300025D115487047134B5B6813F4800F14D0FA
:10214000104B5B6803F03F031048B0FBF3F00D4AFF
:10215000D2F88430C3F3881300FB03F0D2F8843044
:10216000C3F30273B0FBF3F07047064B5B6803F0F8
:102170003F030748B0FBF3F0E9E700207047002079
:10218000704700BF003802400080BB0000127A0098
:102190000024F4000268D36823F0C003D360202336
:1021A00080F8393070470268D36823F49073D360A5
:1021B0000268536923F001035361202380F83A3009
:1021C000704790F83930DBB2212B2AD18368B3F500
:1021D000805F16D0036A5A1C02621A7803685A603C
:1021E000C38C013B9BB2C384EBB90268D36823F074
:1021F0008003D3600268D36843F04003D3600020BB
:102200007047036A1B880268C3F3080353600369BD
:102210001BB9036A02330362E2E7036A0133036214
:10222000DEE7022070470020704700002DE9F843E8
:10223000044601680A6922F44052C36813430B61E3
:102240000168CA6822F4164222F00C028368006911
:10225000034360690343E06903431343CB60216890
:102260004A6922F44072A36913434B61E369B3F5F1
:10227000004F60D02368B84A934200F0148102F501
:102280008062934200F00F81FFF780FE00EB800038
:1022900000EB80006568AD00B0FBF5F5AF4FA7FB24
:1022A00005356D092E01FFF771FE00EB800000EB94
:1022B00080006568AD00B0FBF5F9FFF767FE00EB45
:1022C000800000EB80006568AD00B0FBF5F5A7FB72
:1022D00005356D094FF0640808FB15952D01323561
:1022E000A7FB05356D0905F0F0053544FFF74EFEF7
:1022F00000EB800000EB80006668B600B0FBF6F6ED
:10230000FFF744FE00EB800000EB800063689B0059
:10231000B0FBF3F0A7FB0030400908FB10684FEA60
:10232000081808F13208A7FB0837C7F343172368DA
:102330002F449F600DE12368874A93425BD002F5EA
:102340008062934257D0FFF721FE00EB800000EB44
:10235000800065686D00B0FBF5F5804FA7FB053583
:102360006D092E01FFF712FE00EB800000EB8000EC
:1023700065686D00B0FBF5F9FFF708FE00EB800023
:1023800000EB800065686D00B0FBF5F5A7FB053537
:102390006D094FF0640808FB1595ED003235A7FB79
:1023A00005356D096D0005F4F8753544FFF7EEFD50
:1023B00000EB800000EB800066687600B0FBF6F66C
:1023C000FFF7E4FD00EB800000EB800063685B003A
:1023D000B0FBF3F3A7FB03235B0908FB13684FEA89
:1023E000C80808F13208A7FB0837C7F3421723686B
:1023F0002F449F60ADE0FFF7D9FD00EB800000EBBC
:10240000800065686D00B0FBF5F5544FA7FB0535FE
:102410006D092E01FFF7CAFD00EB800000EB800084
:1024200065686D00B0FBF5F9FFF7C0FD00EB8000BB
:1024300000EB800065686D00B0FBF5F5A7FB053586
:102440006D094FF0640808FB1595ED003235A7FBC8
:1024500005356D096D0005F4F8753544FFF7A6FDE7
:1024600000EB800000EB800066687600B0FBF6F6BB
:10247000FFF79CFD00EB800000EB800063685B00D1
:10248000B0FBF3F3A7FB03235B0908FB13684FEAD8
:10249000C80808F13208A7FB0837C7F342172368BA
:1024A0002F449F6055E0FFF781FD00EB800000EBBB
:1024B00080006568AD00B0FBF5F5284FA7FB05353A
:1024C0006D092E01FFF772FD00EB800000EB80002C
:1024D0006568AD00B0FBF5F9FFF768FD00EB800023
:1024E00000EB80006568AD00B0FBF5F5A7FB053596
:1024F0006D094FF0640808FB15952D013235A7FBD7
:1025000005356D0905F0F0053544FFF74FFD00EB8B
:10251000800000EB80006668B600B0FBF6F6FFF7BF
:1025200045FD00EB800000EB800063689B00B0FB82
:10253000F3F0A7FB0030400908FB10684FEA0818C9
:1025400008F13208A7FB0837C7F3431723682F4465
:102550009F60BDE8F88300BF001001401F85EB516C
:102560002DE9F04105460F4616469846069C2B6815
:102570001B6837EA03030CBF01230023B3421DD1BC
:10258000B4F1FF3FF3D02CB1FEF744F8A0EB080004
:10259000A042ECD92A68D36823F4D073D3602A68A8
:1025A000536923F001035361202385F8393085F8FE
:1025B0003A30002385F83830032000E00020BDE8E1
:1025C000F08158B310B5044690F839300BB324238A
:1025D00084F839302268D36823F40053D36020464E
:1025E000FFF724FE2268136923F4904313612268E5
:1025F000536923F02A0353612268D36843F40053DC
:10260000D3600020E063202384F8393084F83A3026
:1026100010BD80F8383000F05BFFD8E7012070472C
:102620002DE9F04182B01E4690F83930DBB2202B04
:1026300055D104460D469046002955D0002A55D064
:1026400090F83830012B53D0012380F83830002324
:10265000C363212380F83930FDF7DCFF0746A4F877
:102660002480A4F8268010E000963B4600228021BA
:102670002046FFF775FF00283CD12B882268C3F362
:10268000080353602369C3B90235E38C9BB2B3B12D
:10269000E38C013B9BB2E384A368B3F5805FE3D096
:1026A00000963B46002280212046FFF759FF18BBC9
:1026B0002A7823685A600135E7E70135E5E7009697
:1026C0003B46002240212046FFF74AFF0346A8B9B7
:1026D000202284F83920002284F8382000E00223E8
:1026E000184602B0BDE8F0810123F9E70123F7E7BE
:1026F0000223F5E70323F3E70323F1E70323EFE7DF
:1027000038B590F83940E4B2202C31D1002931D0CD
:10271000002A31D090F83830012B2FD013460446D0
:10272000012280F8382001628384C3840025C563B8
:10273000212280F83920026B1148D063226B1148A6
:102740001064226B1048D064226B15652268043235
:10275000206BFEF7C5F823686FF040021A6084F81A
:1027600038502268536943F080035361284600E0E3
:10277000022038BD0120FCE70120FAE70220F8E73B
:1027800037280008832800086D29000830B583B079
:1027900090F83A40E4B2202C3DD100293ED0002AE6
:1027A0003ED090F83830012B3CD013460A46044600
:1027B000012180F83810826283850025C5632221BB
:1027C00080F83A10416B1848C863616B1748086479
:1027D000616B1748C864616B0D6521680431606BDB
:1027E000FEF77EF8019523681A6801925A680192F3
:1027F000019A84F83850DA6842F48072DA6022680C
:10280000536943F0010353612268536943F0400365
:102810005361284600E0022003B030BD0120FBE7F1
:102820000120F9E70220F7E78F2800086129000856
:102830006D290008704708B5836B0268126812F4AE
:10284000807F0CD10022DA8419684A6922F0800264
:102850004A611A68D36843F04003D36008BD184644
:10286000FFF7E8FFFAE708B50168CB6823F04003FB
:10287000CB60202380F83930FFF7DCFF002008BD53
:10288000704708B5806BFFF7FBFF08BD704708B5C0
:10289000836B0268126812F4807F13D10022DA85FC
:1028A0001968CA6822F48072CA6019684A6922F0FD
:1028B00001024A6119684A6922F040024A612022F5
:1028C00083F83A201846FFF7E1FF08BD08B590F8F5
:1028D0003A30DBB2222B40D18368B3F5805F0ED053
:1028E000036903BB03685A68836A591C81621A70C2
:1028F000C38D013B9BB2C385F3B100202EE0826AF9
:10290000036943B903685B68C3F308031380836AF0
:1029100002338362ECE703685B68DBB21380836A8F
:1029200001338362E4E703685B68826A511C816259
:1029300003F07F031370DBE70268D36823F490731E
:10294000D3600268536923F001035361202380F8A8
:102950003A30FFF79BFF002000E0022008BD7047DF
:1029600008B5806BFFF7FBFF08BD704710B5846B9F
:1029700023685A6994F83930DBB2212B10D02368D0
:102980005A6902F0400294F83A30DBB2222B11D09F
:10299000E36B43F01003E3632046FFF7E6FF10BD4F
:1029A00002F08002002AEAD00023E3842046FFF7E9
:1029B000F1FBE4E7002AEBD00023E3852046FFF794
:1029C000F2FBE5E710B5044602681368D168526966
:1029D00013F00F0005D113F0200F02D011F0200FDB
:1029E00053D1002867D012F0010202D111F4907F78
:1029F00061D013F0010F06D011F4807F03D0E06B9B
:102A000040F00100E06313F0040F04D01AB1E06B52
:102A100040F00200E06313F0020F04D01AB1E06B43
:102A200040F00400E06313F0080F04D01AB1E26B29
:102A300042F00802E263E26B002A48D013F0200F54
:102A400002D011F0200F24D123685B6903F040030A
:102A5000E26B12F0080F00D13BB32046FFF7A3FB57
:102A600023685A6912F0400F1BD05A6922F04002C5
:102A70005A61636B8BB11A4A1A65606BFDF76AFF86
:102A800028B3606B036D984721E02046FFF71EFFD7
:102A90001DE02046FFF71AFFD6E72046FFF765FF47
:102AA00015E02046FFF761FF11E02046FFF75DFFCC
:102AB0000023E3630BE013F0800F02D011F0800FCE
:102AC00006D113F0400F02D011F0400F04D110BD19
:102AD0002046FFF776FBFAE72046FFF7C4FEF6E74D
:102AE000E52A000808B5806B0023C385C384FFF77F
:102AF0003CFF08BD2DE9F0478CB0002401945C4BED
:102B00001A6B42F010021A631A6B02F01002019263
:102B1000019A02941A6B42F004021A631A6B02F0D3
:102B200004020292029A03941A6B42F080021A6322
:102B30001A6B02F080020392039A04941A6B42F01B
:102B400001021A631A6B02F001020492049A0594BE
:102B50001A6B42F002021A631A6B02F0020205922B
:102B6000059A06941A6B42F008021A631B6B03F075
:102B700008030693069B3F4F224608213846FEF77E
:102B8000CFF83D4E012211463046FEF7C9F8DFF876
:102B9000F09022464FF210014846FEF7C1F8082394
:102BA00007930125089509940A9407A93846FDF76B
:102BB000D3FF0795089509940A9407A93046FDF7B5
:102BC000CBFF0795DFF8BCA0CDF820A00994A6F5AF
:102BD000006607A93046FDF7BFFFE02307934FF0DB
:102BE0000208CDF8208009940A9405230B9307A9C5
:102BF0003046FDF7B1FF042307930894099407A911
:102C00001E48FDF7A9FF4FF210030793089509949A
:102C10000A9407A94846FDF79FFF4FF400730793F6
:102C20000894099407A93046FDF796FF4FF4E05346
:102C30000793CDF8208009940A940A230B9307A9DF
:102C40003046FDF789FF202307930894099407A9CC
:102C50004846FDF781FFCDF81C80CDF820A00994EF
:102C600007A93846FDF778FF0CB0BDE8F08700BF34
:102C700000380240001002400008024000040240F8
:102C8000000C02400000121010B582B00024019424
:102C9000114B1A6B42F400121A631B6B03F40013FE
:102CA0000193019B224621460C20FDF7CBFC0C2012
:102CB000FDF7FCFC224621460E20FDF7C3FC0E204A
:102CC000FDF7F4FC224621461020FDF7BBFC102046
:102CD000FDF7ECFC02B010BD0038024000B59DB01D
:102CE0000D238DF86C3048BB1A4A137883F0020329
:102CF0001370194A5378B3FA83F35B095370154B79
:102D00001B788DF86D303223009302231BAA942187
:102D10001248FEF7D7F9104A53781278104902A8E2
:102D200000F090FD02A8FDF7D3FB0A2382B202A9AE
:102D30000C48FFF775FC1DB05DF804FB054A1378DD
:102D400083F001031370044A1378B3FA83F35B0929
:102D50001370D4E708000020D40000208801002070
:102D6000A0400008D002002030B59DB004460029E4
:102D700046D007258DF86C40202C44D02E4B9B78F4
:102D80008DF86D30202C41D0212C47D09DF86D302E
:102D90002B44DBB28DF86D304F2B02D850238DF8C9
:102DA0006D303223009302231BAA94212348FEF79F
:102DB00089F90246202C39D09DF86D101E4B997070
:102DC0001F4902A800F03EFD02A8FDF781FB1D4C43
:102DD0000A2382B202A92046FFF722FC164A937802
:102DE0005278194902A800F02DFD02A8FDF770FBEA
:102DF0000A2382B202A92046FFF712FC1DB030BDA3
:102E00006FF00605B6E70C4B5B78B9E70F4B1B7804
:102E1000002BB9D00120FFF761FFB7E70B4B5B78C0
:102E2000002BB3D00020FFF759FFAFE79DF86D10DE
:102E3000014B5970C4E700BF080000208801002042
:102E4000B8400008D0020020D0400008D400002084
:102E500008B50021FFF788FF08BD08B50121FFF77D
:102E600083FF08BDFEE7000008B50C480C4B03606B
:102E70000C4B436000238360C3604FF480420261C7
:102E800043618361C3610362FEF78EF800B908BD38
:102E900040F269110448FFF7E5FF00BF88010020F8
:102EA00000540040A0860100E840000808B50C4826
:102EB0000C4B03604FF40072426000238360C360D8
:102EC00002614BF6803242618361C3610362FEF7A7
:102ED0001FFA00B908BD40F291110348FFF7C2FF85
:102EE00058030020003C0040E840000808B50B48AB
:102EF0000B4B03604FF4E133436000238360C360F6
:102F000003610C2242618361C361FFF75AFB00B980
:102F100008BD4FF4D2710348FFF7A4FFD002002090
:102F200000440040E840000808B50D480D4B036020
:102F30004FF44073436000238360C3604FF400721A
:102F400002614FF4FA5242618361C3610362FEF78A
:102F5000DFF900B908BD40F27D110348FFF782FF99
:102F60001003002000380040E840000808B50B4876
:102F70000B4B03604FF4E133436000238360C36075
:102F800003610C2242618361C361FFF71AFB00B940
:102F900008BD40F2B7110348FFF764FF4801002065
:102FA00000480040E840000800B599B000220192B6
:102FB000324B196C41F0805119641B6C03F0805343
:102FC0000193019B02922E4B196841F480411960D4
:102FD0001B6803F480430293029B02230C9301219C
:102FE0000F91102110911293139208221492A8228B
:102FF00015921693072317930CA8FEF7DDFC70BB00
:103000000F23079302230893002309934FF4A0533F
:103010000A934FF480530B93052107A8FEF704FF92
:1030200010BB01230393C02304930223059303A839
:10303000FEF7CCFFE8B9FEF7A3FF124BA3FB00306D
:103040008009FDF73FFB0420FDF752FB00221146EB
:103050004FF0FF30FDF7F6FA19B05DF804FB40F2CF
:1030600035110948FFF7FEFE40F243110648FFF70D
:10307000F9FE40F24B110448FFF7F4FE003802401D
:1030800000700040D34D6210E84000082DE9F04F79
:103090009FB00025ADF80A50FDF796FAFFF784FFC0
:1030A000FFF728FDFFF7F0FDFFF7DEFEFFF7FEFE5E
:1030B000FFF71CFFFFF738FFFFF758FF7E4B10228A
:1030C0005A618DF8105099238DF811307B4E3224BF
:1030D000009402236A4494213046FDF7F3FF47230E
:1030E0008DF8103080278DF811700094022304AA07
:1030F00094213046FDF7E6FF8DF810408DF81170F1
:103100000094022304AA94213046FDF7DBFF8DF8DA
:1031100010408DF811500094022304AA94213046E7
:10312000FDF7D0FF8DF810508DF811500094022358
:1031300004AA94213046FDF7C5FF1C238DF81030FA
:10314000FF238DF811300094022304AA9421304605
:10315000FDF7B8FF4FF01E0A8DF810A0E0238DF8A0
:1031600011300094022304AA94213046FDF7AAFFEF
:1031700002278DF810709E238DF8113000943B4685
:1031800004AA94213046FDF79DFF4FF020098DF8E9
:103190001090DFF8448198F801308DF811300094D8
:1031A0003B4604AA94213046FDF78CFF21238DF87D
:1031B000103098F802308DF8113000943B4604AA84
:1031C00094213046FDF77EFF98F8023098F80120F0
:1031D000DFF80CB13A4948780190097800913949F3
:1031E000584600F02FFB5846FDF772F9DFF8F480DF
:1031F0000A2382B259464046FFF712FA8DF810A012
:103200008DF8119000943B4604AA94213046FDF7B6
:1032100059FFFDF7FFF9044601222B494046FFF70D
:10322000B5FA0246294905A800F00CFB05A8FDF7F0
:103230004FF90A2382B205A92548FFF7F1F90EE0FC
:103240000A2310220DEB03012248FEF797F9FDF740
:10325000E1F9001BF928F3D9FDF7DCF904461C233A
:103260008DF80C301C4B5A191279134493F83830EE
:103270008DF80D306B1C194A82FB0312DD17C5EB6C
:103280002215342202FB15350C4E322700970223FB
:1032900003AA94213046FDF715FF1E238DF8103048
:1032A000E0238DF811300097022304AA94213046C0
:1032B000FDF708FFCBE700BF000C024088010020AB
:1032C000D4000020F8400008A003002004410008BA
:1032D000D002002058030020080000204FECC44E0C
:1032E000DC0100204801002010B582B000240094C9
:1032F000214B5A6C42F480425A645A6C02F4804268
:103300000092009A01941A6C42F080521A641B6C6D
:1033100003F080530193019B0320FDF781F92246BE
:1033200021466FF00B00FDF78DF9224621466FF024
:103330000A00FDF787F9224621466FF00900FDF7E4
:1033400081F9224621466FF00400FDF77BF9224601
:1033500021466FF00300FDF775F9224621466FF014
:103360000100FDF76FF9224621464FF0FF30FDF7CF
:1033700069F902B010BD00BF003802400268114B6D
:103380009A4200D0704710B586B04FF41073019385
:10339000122302930123039300240494042305932E
:1033A0000DEB03010848FDF7D7FB0094074B1A6C9F
:1033B00042F400121A641B6C03F400130093009B88
:1033C00006B010BD00540040000402400038024026
:1033D000F0B589B00368354A934205D00446344AB3
:1033E000934225D009B0F0BD00240194314B1A6CF2
:1033F00042F480421A641B6C03F480430193019BE6
:103400004823039302260496059406940525079500
:1034100003A92948FDF7A0FB4FF4A053039304969A
:1034200005940694079503A92448FDF795FBD9E771
:10343000002502951F4B1A6C42F400421A641B6C63
:1034400003F400430293029B102303930227049783
:10345000059506950626079603A91948FDF77CFBF6
:103460004FF4A4530393049705950695079603A973
:103470001148FDF771FB1348134B0360456040236F
:103480008360C5604FF48063036145618561C561F8
:1034900005624562FDF7BEF918B90A4BA3639C6348
:1034A000A0E7DA210948FFF7DDFCF6E70038004025
:1034B000003C004000380240000802400004024086
:1034C00000000240700200208860024014410008A1
:1034D0002DE9F04389B003684D4A934206D0044673
:1034E0004C4A934225D009B0BDE8F08300240194F2
:1034F000494B1A6C42F400321A641B6C03F400331B
:103500000193019B0C23039302230493012305934E
:10351000032306930723079303A94048FDF71CFBE9
:10352000224621462620FDF78DF82620FDF7BEF81D
:10353000D9E700250295384B1A6C42F480221A64B0
:103540001B6C03F480230293029B4FF400630393EC
:103550004FF00209CDF810904FF00108CDF814801B
:10356000032706970726079603A92D48FDF7F4FAC7
:103570004FF480730393CDF81090CDF81480069724
:10358000079603A92748FDF7E7FA2748274B03606A
:103590004FF0006343608560C5604FF48063036152
:1035A00045618561C56105624562FDF733F918BB68
:1035B0001D4B63639C631E481E4B03604FF000630A
:1035C0004360402383600023C3604FF48062026144
:1035D00043618361C36103624362FDF71BF988B9EC
:1035E000134B23639C63002211462720FDF72AF822
:1035F0002720FDF75BF876E74FF4B0710E48FFF730
:1036000031FCD5E74FF4B9710B48FFF72BFCE7E726
:1036100000440040004800400038024000000240E2
:1036200000040240000C0240E80000202860024034
:103630001002002058600240144100087047FEE765
:10364000FEE7FEE7FEE770477047704708B5FCF7F6
:10365000D5FFFDF75EF808BD10B582B0214C4FF4E0
:103660007A73012221462048FEF7DAFF2378313BA6
:10367000052B07D8DFE803F00322262A2E3220206C
:10368000FFF7E6FB194B1B78194A1278194C1A49B7
:10369000097801911949097800911949204600F0EB
:1036A000D1F81848FDF76AF92046FCF711FF82B2FD
:1036B00021461548FFF724F802B010BD2020FFF77F
:1036C000CCFBDFE72120FFF7C3FBDBE72120FFF77F
:1036D000C4FBD7E70120FFF701FBD3E70020FFF78A
:1036E000FDFACFE7A0030020D00200200A0000204E
:1036F00009000020DC010020D5000020D4000020BB
:10370000F8400008E80000204801002008B50448FF
:10371000FDF734F9012203490348FFF737F808BDE4
:1037200010020020A00300204801002008B5024834
:10373000FDF724F908BD00BF7002002008B502485B
:10374000FFF740F908BD00BFD002002008B50248CD
:10375000FFF738F908BD00BF480100200F49D1F834
:10376000883043F47003C1F888300D4B1A6842F07A
:1037700001021A60002098601A6822F0847222F414
:1037800080321A60074A5A601A6822F480221A604E
:10379000D8604FF000638B60704700BF00ED00E021
:1037A0000038024010300024DFF834D0002103E05C
:1037B0000C4B5B58435004310B480C4B42189A4257
:1037C000F6D30B4A02E0002342F8043B094B9A422D
:1037D000F9D3FFF7C3FF00F011F8FFF757FC70476C
:1037E000000002207441000800000020B800002002
:1037F000B8000020A8030020FEE7000070B50D4EC1
:103800000D4CA41BA4100025A54209D10B4E0C4C55
:1038100000F02AFCA41BA4100025A54205D170BD10
:1038200056F8253098470135EEE756F82530984789
:103830000135F2E76C4100086C4100086C4100085A
:10384000704100080EB400B59CB01DAB029006900C
:103850006FF00041094807910491094953F8042B7E
:1038600005910068019302A900F066F8029B00220E
:103870001A701CB05DF804EB03B0704754000020D0
:103880000802FFFF2DE9F0478E689E4282460C46F3
:103890009046994637D88A8912F4906F31D02568BE
:1038A00009696F1A6569022305EB450595FBF3F578
:1038B00009F101033B449D4238BF1D46530530D5F5
:1038C000294600F029FB064650B90C23CAF80030FF
:1038D000A38943F04003A3814FF0FF30BDE8F08798
:1038E0003A46216900F0A6FAA38923F4906343F0D5
:1038F0008003A381266165613E44ED1B2660A560BF
:103900004E464E4500D94E4632464146206800F0AC
:103910009CFAA3689B1BA36023681E4426600020BA
:10392000DCE72A4600F052FB06460028E2D1216976
:10393000504600F0A3FAC8E72DE9F04F9DB080464D
:1039400003938B891D060C4616460FD50B696BB980
:10395000402100F0E1FA2060206128B90C23C8F86A
:1039600000304FF0FF30C7E040236361002309932C
:1039700020238DF8293030238DF82A304FF0010BA9
:1039800037463D4615F8013B0BB1252B3ED1B7EB31
:10399000060A0BD05346324621464046FFF772FFD7
:1039A000013000F0A480099B534409933B78002B1D
:1039B00000F09D8000234FF0FF32CDE905230493F2
:1039C00007938DF853301A932F46052217F8011BE1
:1039D0004F48FCF785FD049BD0B9D90644BF20228F
:1039E0008DF853201A0744BF2B228DF853202A78D4
:1039F0002A2A15D0079A2F4600200A25394611F8A1
:103A0000013B303B092B4DD9B8B10FE02F46B8E749
:103A10003F4A801A0BFA00F0184304903D46D3E762
:103A2000039A111D12680391002A01DB079204E03A
:103A3000524243F00203079204933B782E2B0CD1A1
:103A40007B782A2B33D1039B1A1D1B680392002B12
:103A5000B8BF4FF0FF33023705932E4D397803225C
:103A60002846FCF73DFD38B14023401B03FA00F027
:103A7000049B034301370493397827488DF82810B5
:103A800006227E1CFCF72CFD002838D0234B13BBEC
:103A9000039B073323F0070308330393099B4B442D
:103AA00009936DE705FB023201200F46A6E70023CC
:103AB0000137059319460A25384610F8012B303A8C
:103AC000092A03D9002BC8D00591C6E705FB0121BF
:103AD00001230746F0E703AB00932246104B04A9ED
:103AE0004046AFF30080B0F1FF3F8146D6D1A389B5
:103AF0005B063FF536AF09981DB0BDE8F08F03AB0C
:103B000000932246064B04A9404600F081F8EAE7FC
:103B100030410008364100083A410008000000002A
:103B2000853800082DE9F04791461F468A680B69E1
:103B3000DDF820809342B8BF1346C9F8003091F8F1
:103B4000432006460C4612B10133C9F80030236801
:103B5000990642BFD9F800300233C9F80030256811
:103B600015F0060507D104F1190AE368D9F8002019
:103B70009B1AAB4228DC94F843302268003318BF0C
:103B8000012392062DD404F1430239463046C04742
:103B9000013020D02368E568D9F8002003F006033F
:103BA000042B08BFAD1AA36822690CBF25EAE5758E
:103BB00000259342C4BF9B1AED184FF000091A3438
:103BC0004D451AD1002008E00123524639463046BF
:103BD000C047013003D14FF0FF30BDE8F087013519
:103BE000C3E7E1185A1C302081F84300224494F8BE
:103BF000451082F843100233C5E7012322463946B7
:103C00003046C0470130E6D009F10109D8E700008D
:103C10002DE9F04301F1430C0C46097E85B06E2975
:103C20001746064698460C9A00F0B38022D86329BE
:103C300036D00AD8002900F0B980582900F08380D6
:103C400004F1420584F8421032E0642901D0692968
:103C5000F6D120681368050603F104012AD51B6814
:103C60001160002B03DA2D225B4284F843206F4859
:103C70000A2239E0732900F09D8008D86F2920D0EE
:103C80007029DDD1236843F02003236003E0752908
:103C900017D07829D4D1782384F84530644855E08A
:103CA0001368191D1B68116004F1420584F8423045
:103CB00001238CE01B68116010F0400F18BF1BB28D
:103CC000CFE713682568181D1060280601D51B680A
:103CD00002E06806FBD51B8854486F2914BF0A22EE
:103CE0000822002184F843106568A560002DC0F209
:103CF0009580216821F004012160002B3DD1002D29
:103D000040F08E806546082A0BD12368DB0708D572
:103D1000236962689A42DEBF302305F8013C05F151
:103D2000FF35ACEB05032361CDF800803B4603AAC9
:103D300021463046FFF7F6FE01304DD14FF0FF30FF
:103D400005B0BDE8F083394884F845101368216850
:103D50001D1D1B6815600A060BD5CA0744BF41F03C
:103D6000200121601BB9226822F02002226010226B
:103D7000B7E74D0648BF9BB2EFE76546B3FBF2F1EC
:103D800002FB1133C35C05F8013D0B460029F5D158
:103D9000B9E7136825686169181D106028061B685B
:103DA00001D5196002E06A06FBD519800023236162
:103DB0006546B9E71368191D11601D686268002126
:103DC0002846FCF78DFB08B1401B606063682361E7
:103DD000002384F84330A7E723692A463946304652
:103DE000C0470130AAD023689B0713D4E068039B27
:103DF0009842B8BF1846A3E701234A4639463046E1
:103E0000C04701309AD00135E368039A9B1AAB4250
:103E1000F2DCEBE7002504F11909F5E7002BACD142
:103E2000037884F8423004F142056CE74141000810
:103E30005241000810B5431E0A44914200D110BD02
:103E400011F8014B03F8014FF7E7884210B501EB79
:103E5000020307D8421E99420AD011F8014B02F81A
:103E6000014FF8E78342F5D98118D21AD34200D125
:103E700010BD13F8014D01F8014DF7E738B50546BF
:103E8000002945D051F8043C0C1F002BB8BFE418A2
:103E900000F0D2F81F4A1368104633B9636014600B
:103EA0002846BDE8384000F0C8B8A3420CD92168C4
:103EB0006218934204BF1A685B68636004BF5218BB
:103EC00022600460ECE713465A680AB1A242FAD9AC
:103ED00019685818A0420BD1206801445818824232
:103EE0001960DDD1106852685A6001441960D7E743
:103EF00002D90C232B60D3E7206821188A4204BF23
:103F000011685268626004BF091821605C60C7E7ED
:103F100038BD00BFD800002070B5CD1C25F00305CA
:103F200008350C2D38BF0C25002D064601DBA942B3
:103F300003D90C233360002070BD00F07DF8214AC6
:103F40001468214691B9204C23681BB9304600F013
:103F500063F820602946304600F05EF8431C24D107
:103F60000C233360304600F068F8E4E70B685B1B15
:103F700018D40B2B0FD90B60CD50CC18304600F065
:103F80005CF804F10B00231D20F00700C31AD3D006
:103F90005A42E250D0E78C424B6816BF6360136010
:103FA0000C46EBE70C464968CCE7C41C24F003043C
:103FB000A04205D0211A304600F02EF80130CFD0B3
:103FC0002560DBE7D8000020DC000020F8B50746BC
:103FD00014460E4621B91146BDE8F840FFF79CBFD4
:103FE00022B9FFF74BFF25462846F8BD00F026F81A
:103FF000A0420FD221463846FFF78EFF0546002823
:10400000F2D031462246FFF715FF31463846FFF71A
:1040100035FFE9E73546E7E738B5064C00230546A6
:104020000846236000F012F8431C02D1236803B154
:104030002B6038BDA40300207047704751F8043C42
:10404000181F002BBCBF0B58C0187047044A054905
:104050001368002B08BF0B461844106018467047C1
:10406000E0000020A8030020F8B500BFF8BC08BCA1
:104070009E467047F8B500BFF8BC08BC9E46704726
:1040800000061016000610160000000000000000D8
:1040900001020304060708090000000001020304EE
:1040A0004D757465204C3A202564094D7574652062
:1040B000523A2025640A0D0053657420766F6C20F7
:1040C0007374617475733A2025640A0D0000000052
:1040D000566F6C204C3A20257809566F6C20523A66
:1040E0002025780A0D0000002E2E2F5372632F6DAD
:1040F00061696E2E6300000025642C25642C256404
:104100002C2564007374617475733A2025640D0A5C
:10411000000000002E2E2F5372632F73746D333204
:10412000663478785F68616C5F6D73702E63000031
:10413000232D302B2000686C4C0065666745464790
:104140000030313233343536373839414243444513
:104150004600303132333435363738396162636482
:044160006566000090
:084164009CC0FF7F0100000078
:04416C00B501000891
:0441700091010008B1
:104174000100000010000000608F8F00010404059E
:1041840004050202020505060504030101060607EB
:1041940006050402010102050304010404040303E7
:1041A40004030201050605040101010102050304DB
:1041B4000F1F2F3F4F5F6F7F8F9FAFBFCFDFEFFF8B
:1041C4000024F4005800002000000000000000005B
:1041D40000000000000000000000000000000000DB
:1041E40000000000000000000000000000000000CB
:1041F40000000000000000000000000000000000BB
:1042040000000000000000000000000000000000AA
:10421400000000000000000000000000000000009A
:08422400000000000000000092
:04000005080037A90F
:00000001FF
